:100000000C9438000C9455000C9455000C94550039
:100010000C9455000C9455000C9455000C9455000C
:100020000C9455000C9455000C9455000C945500FC
:100030000C9455000C9455000C9455000C945500EC
:100040000C9444020C9455000C9455000C945500EB
:100050000C9455000C9455000C9455000C945500CC
:100060000C9455000C9455006E616E00696E66002C
:1000700011241FBECFEFD8E0DEBFCDBF11E0A0E05E
:10008000B1E0E0E4F5E102C005900D92AA38B107B5
:10009000D9F721E0AAE8B1E001C01D92A83BB20760
:1000A000E1F70E9471010C94210A0C940000E0EC2D
:1000B000F0E0908195FFFDCF8093C60080E090E056
:1000C00008958FEF84B98AB1806F8AB98CE986BDB3
:1000D00014BC82E085BD81E080936E007894089521
:1000E00080911801909119012091B0013091B101D6
:1000F000AC0141505109241735070CF048C04BB1F1
:100100002C5F3F4F81E090E002C0880F991F2A9535
:10011000E2F7809584238BB98091B0019091B10171
:1001200001969093B1018093B001E091B001F091FC
:10013000B101EE0FFF1FEE5EFE4F8081918195951C
:100140008795809585B95F9A8BB14091B0015091A8
:10015000B1014C5F5F4F21E030E002C0220F331F3E
:100160004A95E2F7822B8BB99BB1E091B001F091F7
:10017000B101EE0FFF1FEE5EFE4F8081879588274D
:100180008795809589238BB98CE986BD0895109257
:10019000B1011092B0014BB19C012D5F3F4F81E046
:1001A00090E002C0880F991F2A95E2F7809584237A
:1001B0008BB9BBCFCF92DF92EF92FF920F931F9339
:1001C000CF93DF93C82FD92FC0901801D090190179
:1001D000C114D104C1F1BCF18601000F111F0E5EE4
:1001E0001E4F20E030E00F2EFAE0EF2EF12CF02D24
:1001F0001AC0CE01B7010E94F205FC01EE0FFF1FED
:10020000E65EFE4F80819181F80192938293CE0148
:10021000B7010E94F205EB012F5F3F4F0250110919
:100220002C153D0581F02115310519F3CA30D10592
:1002300004F7CE01B7010E94F205892BD1F6F8012F
:1002400012921292E4CFDF91CF911F910F91FF9004
:10025000EF90DF90CF900895880F991FFC01EE5E1C
:10026000FE4F71836083089588E98093C10086E022
:100270008093C20087E68093C40084E091E090936D
:10028000B5018093B4010895E0ECF0E0908195FF12
:10029000FDCF8093C60080E090E0089581E88093D0
:1002A0007A0080E480937C000895ECE7F0E0908190
:1002B0008F70907F892B8083EAE7F0E080818064F3
:1002C0008083808184FFFDCFEAE7F0E08081806455
:1002D0008083808184FFFDCF8091780090917900A8
:1002E00008950E9461000E944E010E943401539AB9
:1002F0000F2EF4E69F2EF02D812C0F2EFAE36F2E99
:10030000F1E07F2EF02DAA24A394B12C0F2EF7E458
:10031000CF2EF1E0DF2EF02D3FC0892D982D809358
:1003200002019093030120918A0130918B012115E4
:10033000310509F482C02130310509F481C0809172
:10034000020190910301019709F485C08091020197
:1003500090910301009711F00CF083C05B98C501E8
:100360000E9455019F938F93809103018F938091F9
:1003700002018F93EF92FF920F931F93DF93CF931E
:10038000DF92CF920E94AD098DB79EB70C960FB643
:10039000F8949EBF0FBE8DBF80E090E00E94550193
:1003A000C82FD92FBE010D2E000C880B990B0E946F
:1003B0006D0720E030EC4FE754E40E94C30624EAC6
:1003C00030E74DE751E40E942208162F072FF82E40
:1003D000E92E2AE939E949E451E40E94BE06811573
:1003E0000CF09BCF20E030E040E251E4612F702F11
:1003F0008F2D9E2D0E941D088115E1F0DCF020E07C
:1004000030E040E251E4612F702F8F2D9E2D0E942D
:10041000510628E636E646E250E40E94C30620E094
:1004200030E048EC52E40E9422080E943507862FF3
:10043000972F75CF80E090E072CF0E94DA007FCFD7
:10044000612F702F8F2D9E2D0E943507862F972F9D
:100450000E94DA0074CF8091AE019091AF01892B98
:1004600041F0809100019091010184FD77CF5B9A6A
:1004700076CF7F926F920E94AD09B092AF01A092A9
:10048000AE010F900F9062CF1F920F920FB60F9296
:1004900011242F933F934F935F936F937F938F9389
:1004A0009F93AF93BF93EF93FF930E947000FF91D0
:1004B000EF91BF91AF919F918F917F916F915F91DC
:1004C0004F913F912F910F900FBE0F901F90189555
:1004D000AFE0B0E0EEE6F2E00C9406067C013B01F2
:1004E0005A01FC0117821682838181FF57C39AE06B
:1004F000292EF7012381F30123FD859123FF8191AB
:100500003F01811509F442C0853239F423FD9591EC
:1005100023FF91913F01953239F4B70190E00E9499
:100520007D0965015601E5CF30E010E0912C812C6A
:10053000F0E28F1608F03CC09B3279F160F4903203
:1005400071F1933291F19E3209F046C086FC1EC0D3
:10055000689486F806C09D3229F1903359F5689465
:1005600080F8F30123FD959123FF91913F019111B3
:10057000DFCF082D097F903709F486C208F07CC2CE
:10058000983509F484C29F3609F488C2F701868140
:1005900097812F96E2E10C942206689481F8689482
:1005A00082F8DFCF689483F8DCCF689484F8D9CFE1
:1005B00087FC1CC080ED890F8A3028F686FE05C0B6
:1005C000129D800D1124182FCCCF929C800D1124E8
:1005D000982E689485F8C5CF9C3619F4689487F8EE
:1005E000C0CF9C3409F1983609F4BBCF3115F1F036
:1005F000892F8F7D8554833008F098C1650128E0EC
:10060000C20ED11C8FE3898301E010E0AE014F5F81
:100610005F4F5A01E89487F883FC04C0091511055F
:1006200008F4F0C1592C03C231E09BCF8BEB890F4A
:10063000833098F4689484F8905E86FE16E0582D16
:100640005F73852E953689F4689486F8212F1830CB
:1006500010F027E017E0412C14C08BE9890F83309C
:1006600008F064C1E89484F8E8CF963681F5689480
:1006700087F8812F1C3308F08BE344244394480E01
:1006800027E0F50161917191819191916F01042DA4
:10069000AE014F5F5F4F0E948F085C01398030FED2
:1006A00003C00DE233FE05C082FA002705F981FC84
:1006B0000BE2F32DFC705F2EF11529F1011171C2CF
:1006C00024E0512C921608F483C283E06FC220E02C
:1006D000111509F4C0CF1150B9CF81108052B70164
:1006E00090E00E947D090F5F1F4FF80184918111F6
:1006F000F4CF511409F416CFB70180E290E00E94C4
:100700007D095A94F6CF87FE30C0842D8A0D34FEC1
:1007100004C09A81913309F48150442443941816FB
:1007200034F4482EF9E08F1710F088E0482EC50108
:10073000B7FE02C080E090E001960111019611150C
:1007400031F0212F30E02F5F3F4F820F931F89152B
:10075000910514F4592C581A882D8970811136C0CE
:1007600051102DC00115D9F133C086FC25C0E12FF1
:10077000F0E01A151B043CF02CEFA2162FEFB20686
:1007800014F0689487F83296AE014F5F5F4FE40F24
:10079000F51F01C01150111519F082918033D1F36A
:1007A00087FE0AC044244394410EA116B10414F4F8
:1007B0001A19BDCF10E0BBCF85E090E0BECFB701E6
:1007C00080E290E00E947D095A94CACF011529F079
:1007D000B701802F90E00E947D0983FC02C0511078
:1007E0003FC087FE57C04501B7FE02C0812C912C47
:1007F000CE0101968A0D9B1DFC01E819F909FD87C0
:10080000EC879501241931093F872E87012F10E0CD
:10081000119501951109A814B9044CF14E855F8515
:100820004815590524F5EC85FD858181F1E08F1A85
:1008300091082C853D852F5F3F4F3D872C87801683
:100840009106BCF0B70190E00E947D093FEF83164E
:10085000930609F7B7018EE290E00E947D09DBCF95
:10086000B70180E390E00E947D095A94B8CF80E3FD
:10087000DDCFA814B90439F49A81963348F495333E
:1008800011F434FE05C0B70190E00E947D0931CF1C
:1008900081E3F9CF8A81813311F0E89434F8B7010C
:1008A00090E00E947D09111125C085E490E084FC50
:1008B00002C085E690E0B7010E947D09B7FC05C043
:1008C000A114B10461F534FE2AC0B194A194B10819
:1008D0008DE2B70190E00E947D0980E35AE0A51601
:1008E000B104FCF4B70190E00E947D09B701C50195
:1008F000C096CBCFB7018EE290E00E947D091E5FCB
:1009000002E0802F0F5FFE013196E80FF11D80811C
:10091000B70190E00E947D090113F3CFC6CF8BE2AF
:10092000D8CF8F5F4AE0A41AB108D8CF9336E1F14F
:10093000933709F447C0933509F453C0943619F03E
:10094000993609F080C0F50187FE75C061917191FB
:10095000819191916F01082D0F7697FF08C09095B6
:100960008095709561957F4F8F4F9F4F00682AE06B
:1009700030E0AE014F5F5F4F5A010E94C309B82EAD
:10098000BA1806FF95C0802F8E7FB11608F08FC071
:1009900004FFE1C002FDD5C00E7E512E802F867867
:1009A000811509F490C0D2C0650182E0C80ED11C47
:1009B000F5018081898301E010E09E012F5F3F4FA8
:1009C000590128CEF501A190B1906F01612F70E01F
:1009D00086FC02C06FEF7FEFC5010E9472098C0197
:1009E00019CEF501A190B1906F01612F70E086FCE6
:1009F00002C06FEF7FEFC5010E9467098C01689408
:100A000087F80ACEB70180E290E00E947D099A94AF
:100A100005CEF50187FC859187FE81915F01B701C5
:100A200090E00E947D0951105A940150110901155E
:100A3000110579F75ECE619171916F01072E000C5F
:100A4000880B990B88CF082D0F7E2AE030E0953770
:100A500009F08FCDF50107FF24C06191719181915B
:100A600091916F01AE014F5F5F4F5A010E94C30920
:100A7000B82EBA180F7785CF983709F087CD84FC48
:100A800004C020E130E0E6CF00610460FACF84FECC
:100A900002C0082D066020E132E0DCCF28E030E023
:100AA000D9CF619171916F0180E090E0DBCF082F89
:100AB0005B2C04FF73CFFE01EB0DF11D80818033B1
:100AC00009F042C0097E03FD0EC000FF50C01B2D7F
:100AD000591418F4190D1519592C892D85199514C7
:100AE00008F480E0580E591408F043C09518592CAA
:100AF00004FF41C0B70180E390E00E947D0902FF3E
:100B000009C088E590E001FD02C088E790E0B701E8
:100B10000E947D09B116D8F1BA940B2D10E00F5F39
:100B20001F4FCE0101965C01080F191FF801829139
:100B30008F01B70190E00E947D09A016B106B1F7C0
:100B4000D8CD512E082FB7CF02FD02C05394BBCF92
:100B500053945394B8CF512E082F20CFB70180E281
:100B600090E00E947D09A394A914C0F3B6CFA52CF0
:100B7000FBCF512CBDCF802F8678811559F280E2B2
:100B800001FD8BE207FD8DE2B70190E0C1CFB70117
:100B900080E390E00E947D091150BCCF8FEF9FEF62
:100BA000F8CCF5E0512C9F1670F084E0592C581ABF
:100BB00083FC07C0B70180E290E00E947D095A944F
:100BC000C9F7011529F0B701802F90E00E947D0937
:100BD00008E610E033FC02C00CE610E0282D20717E
:100BE000822E83CD97FB072E16F4009407D077FD55
:100BF00009D00E943D0607FC05D03EF490958195F2
:100C00009F4F0895709561957F4F08952F923F9261
:100C10004F925F926F927F928F929F92AF92BF920C
:100C2000CF92DF92EF92FF920F931F93CF93DF93B8
:100C3000CDB7DEB7CA1BDB0B0FB6F894DEBF0FBE15
:100C4000CDBF09942A88398848885F846E847D8462
:100C50008C849B84AA84B984C884DF80EE80FD8064
:100C60000C811B81AA81B981CE0FD11D0FB6F894DA
:100C7000DEBF0FBECDBFED010895AA1BBB1B51E126
:100C800007C0AA1FBB1FA617B70710F0A61BB70BFC
:100C9000881F991F5A95A9F780959095BC01CD01A1
:100CA00008955058BB27AA270E9469060C94E307B1
:100CB0000E94D50738F00E94DC0720F039F49F3FEE
:100CC00019F426F40C94D2070EF4E095E7FB0C948B
:100CD000CC07E92F0E94F40758F3BA17620773078D
:100CE0008407950720F079F4A6F50C9416080EF405
:100CF000E0950B2EBA2FA02D0B01B90190010C012C
:100D0000CA01A0011124FF27591B99F0593F50F443
:100D1000503E68F11A16F040A22F232F342F44279B
:100D2000585FF3CF469537952795A795F040539593
:100D3000C9F77EF41F16BA0B620B730B840BBAF063
:100D40009150A1F0FF0FBB1F661F771F881FC2F7CE
:100D50000EC0BA0F621F731F841F48F487957795E2
:100D60006795B795F7959E3F08F0B0CF9395880F9C
:100D700008F09927EE0F9795879508950E94A80788
:100D800008F481E008950E94D7060C94E3070E94BE
:100D9000DC0758F00E94D50740F029F45F3F29F0A6
:100DA0000C94CC0751110C9417080C94D2070E9494
:100DB000F40768F39923B1F3552391F3951B550B71
:100DC000BB27AA2762177307840738F09F5F5F4F1E
:100DD000220F331F441FAA1FA9F335D00E2E3AF05D
:100DE000E0E832D091505040E695001CCAF72BD075
:100DF000FE2F29D0660F771F881FBB1F26173707C6
:100E00004807AB07B0E809F0BB0B802DBF01FF27F7
:100E100093585F4F3AF09E3F510578F00C94CC0701
:100E20000C9417085F3FE4F3983ED4F386957795CA
:100E30006795B795F7959F5FC9F7880F911D9695B0
:100E4000879597F90895E1E0660F771F881FBB1F0C
:100E5000621773078407BA0720F0621B730B840BB9
:100E6000BA0BEE1F88F7E09508950E943C0768943E
:100E7000B1110C94170808950E94FC0788F09F5741
:100E800098F0B92F9927B751B0F0E1F0660F771FAE
:100E9000881F991F1AF0BA95C9F714C0B13091F0A4
:100EA0000E941608B1E008950C941608672F782F59
:100EB0008827B85F39F0B93FCCF386957795679569
:100EC000B395D9F73EF490958095709561957F4FD5
:100ED0008F4F9F4F0895E89409C097FB3EF490957B
:100EE0008095709561957F4F8F4F9F4F9923A9F003
:100EF000F92F96E9BB279395F69587957795679592
:100F0000B795F111F8CFFAF4BB0F11F460FF1BC0D5
:100F10006F5F7F4F8F4F9F4F16C0882311F096E968
:100F200011C0772321F09EE8872F762F05C0662316
:100F300071F096E8862F70E060E02AF09A95660FCF
:100F4000771F881FDAF7880F9695879597F9089588
:100F5000990F0008550FAA0BE0E8FEEF16161706CA
:100F6000E807F907C0F012161306E407F50798F032
:100F7000621B730B840B950B39F40A2661F0232B4B
:100F8000242B252B21F408950A2609F4A140A695C7
:100F90008FEF811D811D089597F99F6780E870E0AC
:100FA00060E008959FEF80EC089500240A941616DF
:100FB000170618060906089500240A941216130647
:100FC000140605060895092E0394000C11F48823D5
:100FD00052F0BB0F40F4BF2B11F460FF04C06F5FF1
:100FE0007F4F8F4F9F4F089557FD9058440F551FC7
:100FF00059F05F3F71F04795880F97FB991F61F09B
:101000009F3F79F087950895121613061406551F11
:10101000F2CF4695F1DF08C0161617061806991F7D
:10102000F1CF86957105610508940895E894BB2772
:1010300066277727CB0197F908950E94A80708F43F
:101040008FEF08950E9435080C94E3070E94D5079E
:1010500038F00E94DC0720F0952311F00C94CC07A7
:101060000C94D20711240C9417080E94F40770F313
:10107000959FC1F3950F50E0551F629FF001729F3D
:10108000BB27F00DB11D639FAA27F00DB11DAA1F4C
:10109000649F6627B00DA11D661F829F2227B00D99
:1010A000A11D621F739FB00DA11D621F839FA00D24
:1010B000611D221F749F3327A00D611D231F849F74
:1010C000600D211D822F762F6A2F11249F575040CB
:1010D0009AF0F1F088234AF0EE0FFF1FBB1F661F46
:1010E000771F881F91505040A9F79E3F510580F00F
:1010F0000C94CC070C9417085F3FE4F3983ED4F3AC
:10110000869577956795B795F795E7959F5FC1F7B2
:10111000FE2B880F911D9695879597F90895283095
:1011200008F027E03327DA01990F311D87FD916020
:1011300000966105710539F432602E5F3D9330E30E
:101140002A95E1F708959F3F30F0803871056105D9
:1011500009F03C5F3C5F3D93913008F08068911D41
:10116000DF93CF931F930F93FF92EF92192F987FE6
:101170009695E92F96959695E90FFF27E056FB4E39
:1011800099273327EE24FF24A701E701059008944F
:10119000079428F4360FE71EF81E491F511D660FED
:1011A000771F881F991F0694A1F70590079428F4CC
:1011B000E70EF81E491F561FC11D770F881F991F84
:1011C000661F0694A1F70590079428F4F80E491FAE
:1011D000561FC71FD11D880F991F661F771F0694C2
:1011E000A1F70590079420F4490F561FC71FD81F79
:1011F000990F661F771F881F0694A9F78491109591
:10120000177041F0D695C79557954795F794E79491
:101210001A95C1F7E6E4F4E16894159015913591BB
:101220006591959105907FE27395E118F10A430B62
:10123000560BC90BD009C0F7E10CF11E431F561F16
:10124000C91FD01D7EF4703311F48A95E6CFE8945F
:10125000015030F0080F0AF40027021708F4202F7D
:101260002395022F7A3328F079E37D932A95E9F7C5
:1012700010C07D932A9589F60694979567953795C2
:1012800017951794E118F10A430B560BC90BD009B7
:1012900098F023957E9173957A3308F070E37C93F0
:1012A0002013B8F77E9170617D9330F0839571E3E0
:1012B0007D9370E32A95E1F71124EF90FF900F9151
:1012C0001F91CF91DF91992787FD90950895FC019B
:1012D0000590615070400110D8F7809590958E0F61
:1012E0009F1F0895FC016150704001900110D8F7D4
:1012F000809590958E0F9F1F08950F931F93CF9306
:10130000DF93182F092FEB018B8181FD09C01FEF9F
:101310000FEF812F902FDF91CF911F910F910895A3
:1013200082FF14C02E813F818C819D81281739074F
:101330003CF4E881F981CF01019699838883108379
:101340008E819F8101969F838E83E3CFE885F98507
:10135000812F0995892BA1F3DACFA0E0B0E0E3EB70
:10136000F9E00C941606AE014B5F5F4FFA016191F4
:101370007191AF018091B4019091B5010E94680212
:10138000E2E00C943206FA01AA27283051F120310C
:1013900081F1E8946F936E7F6E5F7F4F8F4F9F4F09
:1013A000AF4FB1E03ED0B4E03CD0670F781F891F4B
:1013B0009A1FA11D680F791F8A1F911DA11D6A0F19
:1013C000711D811D911DA11D20D009F468943F91CC
:1013D0002AE0269F11243019305D3193DEF6CF01CB
:1013E0000895462F4770405D4193B3E00FD0C9F791
:1013F000F6CF462F4F70405D4A3318F0495D31FDFE
:101400004052419302D0A9F7EACFB4E0A695979550
:10141000879577956795BA95C9F700976105710526
:1014200008959B01AC010A2E069457954795379570
:101430002795BA95C9F7620F731F841F951FA01DCA
:101440000895F894FFCF00407A10F35A00A0724E2E
:1014500018090010A5D4E80000E87648170000E459
:101460000B54020000CA9A3B000000E1F5050000A1
:1014700080969800000040420F000000A086010006
:101480000000102700000000E803000000006400D6
:10149000000000000A000000000001000000000041
:1014A0002C76D888DC674F0823DFC1DFAE59E1B165
:1014B000B796E5E3E453C63AE651997696E8E6C274
:1014C0008426EB898C9B62ED407C6FFCEFBC9C9F7B
:1014D00040F2BAA56FA5F490055A2AF75C936B6C9D
:1014E000F9676DC11BFCE0E40D47FEF520E6B50091
:1014F000D0ED902E0300943577050080841E0800FF
:1015000000204E0A000000C80C333333330F986EAE
:1015100012831141EF8D2114893BE65516CFFEE66B
:10152000DB18D1844B381BF77C1D901DA4BBE42431
:10153000203284725E228100C9F124ECA1E53D27AE
:10154000030032000000000200000000570000000D
:10155000000006005B004F0003003F0006005B0038
:101560004F0066006D007D0007007F006F00686619
:101570002640000020419A9949410A0D736875740C
:10158000646F776E0A0D004144433A2025642C2095
:10159000566F6C746167653A2025662C2042617431
:1015A000746572792050657263656E746167653A1F
:1015B0002025642C204144433120284375727265F4
:0A15C0006E74293A2564200A0D001C
:00000001FF
